{
  "_format": "hh-sol-artifact-1",
  "contractName": "Doit",
  "sourceName": "contracts/Doit.sol",
  "abi": [
    {
      "inputs": [],
      "stateMutability": "nonpayable",
      "type": "constructor"
    },
    {
      "inputs": [
        {
          "internalType": "uint256",
          "name": "increasedSupply",
          "type": "uint256"
        },
        {
          "internalType": "uint256",
          "name": "cap",
          "type": "uint256"
        }
      ],
      "name": "ERC20ExceededCap",
      "type": "error"
    },
    {
      "inputs": [
        {
          "internalType": "address",
          "name": "spender",
          "type": "address"
        },
        {
          "internalType": "uint256",
          "name": "allowance",
          "type": "uint256"
        },
        {
          "internalType": "uint256",
          "name": "needed",
          "type": "uint256"
        }
      ],
      "name": "ERC20InsufficientAllowance",
      "type": "error"
    },
    {
      "inputs": [
        {
          "internalType": "address",
          "name": "sender",
          "type": "address"
        },
        {
          "internalType": "uint256",
          "name": "balance",
          "type": "uint256"
        },
        {
          "internalType": "uint256",
          "name": "needed",
          "type": "uint256"
        }
      ],
      "name": "ERC20InsufficientBalance",
      "type": "error"
    },
    {
      "inputs": [
        {
          "internalType": "address",
          "name": "approver",
          "type": "address"
        }
      ],
      "name": "ERC20InvalidApprover",
      "type": "error"
    },
    {
      "inputs": [
        {
          "internalType": "uint256",
          "name": "cap",
          "type": "uint256"
        }
      ],
      "name": "ERC20InvalidCap",
      "type": "error"
    },
    {
      "inputs": [
        {
          "internalType": "address",
          "name": "receiver",
          "type": "address"
        }
      ],
      "name": "ERC20InvalidReceiver",
      "type": "error"
    },
    {
      "inputs": [
        {
          "internalType": "address",
          "name": "sender",
          "type": "address"
        }
      ],
      "name": "ERC20InvalidSender",
      "type": "error"
    },
    {
      "inputs": [
        {
          "internalType": "address",
          "name": "spender",
          "type": "address"
        }
      ],
      "name": "ERC20InvalidSpender",
      "type": "error"
    },
    {
      "inputs": [
        {
          "internalType": "address",
          "name": "owner",
          "type": "address"
        }
      ],
      "name": "OwnableInvalidOwner",
      "type": "error"
    },
    {
      "inputs": [
        {
          "internalType": "address",
          "name": "account",
          "type": "address"
        }
      ],
      "name": "OwnableUnauthorizedAccount",
      "type": "error"
    },
    {
      "anonymous": false,
      "inputs": [
        {
          "indexed": true,
          "internalType": "address",
          "name": "owner",
          "type": "address"
        },
        {
          "indexed": true,
          "internalType": "address",
          "name": "spender",
          "type": "address"
        },
        {
          "indexed": false,
          "internalType": "uint256",
          "name": "value",
          "type": "uint256"
        }
      ],
      "name": "Approval",
      "type": "event"
    },
    {
      "anonymous": false,
      "inputs": [
        {
          "indexed": true,
          "internalType": "address",
          "name": "previousOwner",
          "type": "address"
        },
        {
          "indexed": true,
          "internalType": "address",
          "name": "newOwner",
          "type": "address"
        }
      ],
      "name": "OwnershipTransferred",
      "type": "event"
    },
    {
      "anonymous": false,
      "inputs": [
        {
          "indexed": true,
          "internalType": "address",
          "name": "from",
          "type": "address"
        },
        {
          "indexed": true,
          "internalType": "address",
          "name": "to",
          "type": "address"
        },
        {
          "indexed": false,
          "internalType": "uint256",
          "name": "value",
          "type": "uint256"
        }
      ],
      "name": "Transfer",
      "type": "event"
    },
    {
      "inputs": [],
      "name": "_totalSupplyAll",
      "outputs": [
        {
          "internalType": "uint256",
          "name": "",
          "type": "uint256"
        }
      ],
      "stateMutability": "view",
      "type": "function"
    },
    {
      "inputs": [
        {
          "internalType": "address",
          "name": "owner",
          "type": "address"
        },
        {
          "internalType": "address",
          "name": "spender",
          "type": "address"
        }
      ],
      "name": "allowance",
      "outputs": [
        {
          "internalType": "uint256",
          "name": "",
          "type": "uint256"
        }
      ],
      "stateMutability": "view",
      "type": "function"
    },
    {
      "inputs": [
        {
          "internalType": "address",
          "name": "spender",
          "type": "address"
        },
        {
          "internalType": "uint256",
          "name": "value",
          "type": "uint256"
        }
      ],
      "name": "approve",
      "outputs": [
        {
          "internalType": "bool",
          "name": "",
          "type": "bool"
        }
      ],
      "stateMutability": "nonpayable",
      "type": "function"
    },
    {
      "inputs": [
        {
          "internalType": "address",
          "name": "account",
          "type": "address"
        }
      ],
      "name": "balanceOf",
      "outputs": [
        {
          "internalType": "uint256",
          "name": "",
          "type": "uint256"
        }
      ],
      "stateMutability": "view",
      "type": "function"
    },
    {
      "inputs": [
        {
          "internalType": "uint256",
          "name": "value",
          "type": "uint256"
        }
      ],
      "name": "burn",
      "outputs": [],
      "stateMutability": "nonpayable",
      "type": "function"
    },
    {
      "inputs": [
        {
          "internalType": "address",
          "name": "account",
          "type": "address"
        },
        {
          "internalType": "uint256",
          "name": "value",
          "type": "uint256"
        }
      ],
      "name": "burnFrom",
      "outputs": [],
      "stateMutability": "nonpayable",
      "type": "function"
    },
    {
      "inputs": [],
      "name": "cap",
      "outputs": [
        {
          "internalType": "uint256",
          "name": "",
          "type": "uint256"
        }
      ],
      "stateMutability": "view",
      "type": "function"
    },
    {
      "inputs": [],
      "name": "decimals",
      "outputs": [
        {
          "internalType": "uint8",
          "name": "",
          "type": "uint8"
        }
      ],
      "stateMutability": "view",
      "type": "function"
    },
    {
      "inputs": [],
      "name": "maxSupply",
      "outputs": [
        {
          "internalType": "uint256",
          "name": "",
          "type": "uint256"
        }
      ],
      "stateMutability": "view",
      "type": "function"
    },
    {
      "inputs": [
        {
          "internalType": "address",
          "name": "to",
          "type": "address"
        },
        {
          "internalType": "uint256",
          "name": "amount",
          "type": "uint256"
        }
      ],
      "name": "mint",
      "outputs": [],
      "stateMutability": "nonpayable",
      "type": "function"
    },
    {
      "inputs": [],
      "name": "name",
      "outputs": [
        {
          "internalType": "string",
          "name": "",
          "type": "string"
        }
      ],
      "stateMutability": "view",
      "type": "function"
    },
    {
      "inputs": [],
      "name": "owner",
      "outputs": [
        {
          "internalType": "address",
          "name": "",
          "type": "address"
        }
      ],
      "stateMutability": "view",
      "type": "function"
    },
    {
      "inputs": [],
      "name": "renounceOwnership",
      "outputs": [],
      "stateMutability": "nonpayable",
      "type": "function"
    },
    {
      "inputs": [
        {
          "internalType": "address",
          "name": "miner",
          "type": "address"
        },
        {
          "internalType": "uint256",
          "name": "amount",
          "type": "uint256"
        }
      ],
      "name": "rewardMiner",
      "outputs": [],
      "stateMutability": "nonpayable",
      "type": "function"
    },
    {
      "inputs": [],
      "name": "symbol",
      "outputs": [
        {
          "internalType": "string",
          "name": "",
          "type": "string"
        }
      ],
      "stateMutability": "view",
      "type": "function"
    },
    {
      "inputs": [],
      "name": "totalSupply",
      "outputs": [
        {
          "internalType": "uint256",
          "name": "",
          "type": "uint256"
        }
      ],
      "stateMutability": "view",
      "type": "function"
    },
    {
      "inputs": [
        {
          "internalType": "address",
          "name": "to",
          "type": "address"
        },
        {
          "internalType": "uint256",
          "name": "value",
          "type": "uint256"
        }
      ],
      "name": "transfer",
      "outputs": [
        {
          "internalType": "bool",
          "name": "",
          "type": "bool"
        }
      ],
      "stateMutability": "nonpayable",
      "type": "function"
    },
    {
      "inputs": [
        {
          "internalType": "address",
          "name": "from",
          "type": "address"
        },
        {
          "internalType": "address",
          "name": "to",
          "type": "address"
        },
        {
          "internalType": "uint256",
          "name": "value",
          "type": "uint256"
        }
      ],
      "name": "transferFrom",
      "outputs": [
        {
          "internalType": "bool",
          "name": "",
          "type": "bool"
        }
      ],
      "stateMutability": "nonpayable",
      "type": "function"
    },
    {
      "inputs": [
        {
          "internalType": "address",
          "name": "newOwner",
          "type": "address"
        }
      ],
      "name": "transferOwnership",
      "outputs": [],
      "stateMutability": "nonpayable",
      "type": "function"
    }
  ],
  "bytecode": "0x60a0604052633b9aca006006553480156200001957600080fd5b50336006546040518060400160405280600681526020017f4c656e6f766f00000000000000000000000000000000000000000000000000008152506040518060400160405280600381526020017f4c454e000000000000000000000000000000000000000000000000000000000081525081600390816200009b9190620008c8565b508060049081620000ad9190620008c8565b50505060008103620000f95760006040517f392e1e27000000000000000000000000000000000000000000000000000000008152600401620000f09190620009f2565b60405180910390fd5b806080818152505050600073ffffffffffffffffffffffffffffffffffffffff168173ffffffffffffffffffffffffffffffffffffffff1603620001775760006040517f1e4fbdf70000000000000000000000000000000000000000000000000000000081526004016200016e919062000a54565b60405180910390fd5b6200018881620001d460201b60201c565b5060006200019b6200029a60201b60201c565b600a620001a9919062000c01565b626acfc0620001b9919062000c52565b9050620001cd3382620002a360201b60201c565b5062000d70565b6000600560009054906101000a900473ffffffffffffffffffffffffffffffffffffffff16905081600560006101000a81548173ffffffffffffffffffffffffffffffffffffffff021916908373ffffffffffffffffffffffffffffffffffffffff1602179055508173ffffffffffffffffffffffffffffffffffffffff168173ffffffffffffffffffffffffffffffffffffffff167f8be0079c531659141344cd1fd0a4f28419497f9722a3daafe3b4186f6b6457e060405160405180910390a35050565b60006012905090565b600073ffffffffffffffffffffffffffffffffffffffff168273ffffffffffffffffffffffffffffffffffffffff1603620003185760006040517fec442f050000000000000000000000000000000000000000000000000000000081526004016200030f919062000a54565b60405180910390fd5b6200032c600083836200033060201b60201c565b5050565b620003438383836200034860201b60201c565b505050565b6200035b8383836200040a60201b60201c565b600073ffffffffffffffffffffffffffffffffffffffff168373ffffffffffffffffffffffffffffffffffffffff160362000405576000620003a26200063a60201b60201c565b90506000620003b66200064460201b60201c565b905081811115620004025780826040517f9e79f854000000000000000000000000000000000000000000000000000000008152600401620003f992919062000cae565b60405180910390fd5b50505b505050565b600073ffffffffffffffffffffffffffffffffffffffff168373ffffffffffffffffffffffffffffffffffffffff16036200046057806002600082825462000453919062000cdb565b9250508190555062000536565b60008060008573ffffffffffffffffffffffffffffffffffffffff1673ffffffffffffffffffffffffffffffffffffffff16815260200190815260200160002054905081811015620004ef578381836040517fe450d38c000000000000000000000000000000000000000000000000000000008152600401620004e69392919062000d16565b60405180910390fd5b8181036000808673ffffffffffffffffffffffffffffffffffffffff1673ffffffffffffffffffffffffffffffffffffffff16815260200190815260200160002081905550505b600073ffffffffffffffffffffffffffffffffffffffff168273ffffffffffffffffffffffffffffffffffffffff1603620005815780600260008282540392505081905550620005ce565b806000808473ffffffffffffffffffffffffffffffffffffffff1673ffffffffffffffffffffffffffffffffffffffff168152602001908152602001600020600082825401925050819055505b8173ffffffffffffffffffffffffffffffffffffffff168373ffffffffffffffffffffffffffffffffffffffff167fddf252ad1be2c89b69c2b068fc378daa952ba7f163c4a11628f55a4df523b3ef836040516200062d919062000d53565b60405180910390a3505050565b6000608051905090565b6000600754905090565b600081519050919050565b7f4e487b7100000000000000000000000000000000000000000000000000000000600052604160045260246000fd5b7f4e487b7100000000000000000000000000000000000000000000000000000000600052602260045260246000fd5b60006002820490506001821680620006d057607f821691505b602082108103620006e657620006e562000688565b5b50919050565b60008190508160005260206000209050919050565b60006020601f8301049050919050565b600082821b905092915050565b600060088302620007507fffffffffffffffffffffffffffffffffffffffffffffffffffffffffffffffff8262000711565b6200075c868362000711565b95508019841693508086168417925050509392505050565b6000819050919050565b6000819050919050565b6000620007a9620007a36200079d8462000774565b6200077e565b62000774565b9050919050565b6000819050919050565b620007c58362000788565b620007dd620007d482620007b0565b8484546200071e565b825550505050565b600090565b620007f4620007e5565b62000801818484620007ba565b505050565b5b8181101562000829576200081d600082620007ea565b60018101905062000807565b5050565b601f82111562000878576200084281620006ec565b6200084d8462000701565b810160208510156200085d578190505b620008756200086c8562000701565b83018262000806565b50505b505050565b600082821c905092915050565b60006200089d600019846008026200087d565b1980831691505092915050565b6000620008b883836200088a565b9150826002028217905092915050565b620008d3826200064e565b67ffffffffffffffff811115620008ef57620008ee62000659565b5b620008fb8254620006b7565b620009088282856200082d565b600060209050601f8311600181146200094057600084156200092b578287015190505b620009378582620008aa565b865550620009a7565b601f1984166200095086620006ec565b60005b828110156200097a5784890151825560018201915060208501945060208101905062000953565b868310156200099a578489015162000996601f8916826200088a565b8355505b6001600288020188555050505b505050505050565b6000819050919050565b6000620009da620009d4620009ce84620009af565b6200077e565b62000774565b9050919050565b620009ec81620009b9565b82525050565b600060208201905062000a096000830184620009e1565b92915050565b600073ffffffffffffffffffffffffffffffffffffffff82169050919050565b600062000a3c8262000a0f565b9050919050565b62000a4e8162000a2f565b82525050565b600060208201905062000a6b600083018462000a43565b92915050565b7f4e487b7100000000000000000000000000000000000000000000000000000000600052601160045260246000fd5b60008160011c9050919050565b6000808291508390505b600185111562000aff5780860481111562000ad75762000ad662000a71565b5b600185161562000ae75780820291505b808102905062000af78562000aa0565b945062000ab7565b94509492505050565b60008262000b1a576001905062000bed565b8162000b2a576000905062000bed565b816001811462000b43576002811462000b4e5762000b84565b600191505062000bed565b60ff84111562000b635762000b6262000a71565b5b8360020a91508482111562000b7d5762000b7c62000a71565b5b5062000bed565b5060208310610133831016604e8410600b841016171562000bbe5782820a90508381111562000bb85762000bb762000a71565b5b62000bed565b62000bcd848484600162000aad565b9250905081840481111562000be75762000be662000a71565b5b81810290505b9392505050565b600060ff82169050919050565b600062000c0e8262000774565b915062000c1b8362000bf4565b925062000c4a7fffffffffffffffffffffffffffffffffffffffffffffffffffffffffffffffff848462000b08565b905092915050565b600062000c5f8262000774565b915062000c6c8362000774565b925082820262000c7c8162000774565b9150828204841483151762000c965762000c9562000a71565b5b5092915050565b62000ca88162000774565b82525050565b600060408201905062000cc5600083018562000c9d565b62000cd4602083018462000c9d565b9392505050565b600062000ce88262000774565b915062000cf58362000774565b925082820190508082111562000d105762000d0f62000a71565b5b92915050565b600060608201905062000d2d600083018662000a43565b62000d3c602083018562000c9d565b62000d4b604083018462000c9d565b949350505050565b600060208201905062000d6a600083018462000c9d565b92915050565b6080516115c062000d8c600039600061049d01526115c06000f3fe608060405234801561001057600080fd5b50600436106101215760003560e01c806370a08231116100ad578063a9059cbb11610071578063a9059cbb146102e6578063d5abeb0114610316578063dd62ed3e14610334578063f2fde38b14610364578063f5e86ed61461038057610121565b806370a0823114610254578063715018a61461028457806379cc67901461028e5780638da5cb5b146102aa57806395d89b41146102c857610121565b806323b872dd116100f457806323b872dd146101b0578063313ce567146101e0578063355274ea146101fe57806340c10f191461021c57806342966c681461023857610121565b806306fdde0314610126578063095ea7b314610144578063123b06361461017457806318160ddd14610192575b600080fd5b61012e61039c565b60405161013b9190611152565b60405180910390f35b61015e6004803603810190610159919061120d565b61042e565b60405161016b9190611268565b60405180910390f35b61017c610451565b6040516101899190611292565b60405180910390f35b61019a610457565b6040516101a79190611292565b60405180910390f35b6101ca60048036038101906101c591906112ad565b610461565b6040516101d79190611268565b60405180910390f35b6101e8610490565b6040516101f5919061131c565b60405180910390f35b610206610499565b6040516102139190611292565b60405180910390f35b6102366004803603810190610231919061120d565b6104c1565b005b610252600480360381019061024d9190611337565b61052e565b005b61026e60048036038101906102699190611364565b610542565b60405161027b9190611292565b60405180910390f35b61028c61058a565b005b6102a860048036038101906102a3919061120d565b61059e565b005b6102b26105be565b6040516102bf91906113a0565b60405180910390f35b6102d06105e8565b6040516102dd9190611152565b60405180910390f35b61030060048036038101906102fb919061120d565b61067a565b60405161030d9190611268565b60405180910390f35b61031e61069d565b60405161032b9190611292565b60405180910390f35b61034e600480360381019061034991906113bb565b6106a3565b60405161035b9190611292565b60405180910390f35b61037e60048036038101906103799190611364565b61072a565b005b61039a6004803603810190610395919061120d565b6107b0565b005b6060600380546103ab9061142a565b80601f01602080910402602001604051908101604052809291908181526020018280546103d79061142a565b80156104245780601f106103f957610100808354040283529160200191610424565b820191906000526020600020905b81548152906001019060200180831161040757829003601f168201915b5050505050905090565b60008061043961081d565b9050610446818585610825565b600191505092915050565b60075481565b6000600754905090565b60008061046c61081d565b9050610479858285610837565b6104848585856108cb565b60019150509392505050565b60006012905090565b60007f0000000000000000000000000000000000000000000000000000000000000000905090565b6104c96109bf565b600654816104d5610457565b6104df919061148a565b1115610520576040517f08c379a00000000000000000000000000000000000000000000000000000000081526004016105179061150a565b60405180910390fd5b61052a8282610a46565b5050565b61053f61053961081d565b82610ac8565b50565b60008060008373ffffffffffffffffffffffffffffffffffffffff1673ffffffffffffffffffffffffffffffffffffffff168152602001908152602001600020549050919050565b6105926109bf565b61059c6000610b4a565b565b6105b0826105aa61081d565b83610837565b6105ba8282610ac8565b5050565b6000600560009054906101000a900473ffffffffffffffffffffffffffffffffffffffff16905090565b6060600480546105f79061142a565b80601f01602080910402602001604051908101604052809291908181526020018280546106239061142a565b80156106705780601f1061064557610100808354040283529160200191610670565b820191906000526020600020905b81548152906001019060200180831161065357829003601f168201915b5050505050905090565b60008061068561081d565b90506106928185856108cb565b600191505092915050565b60065481565b6000600160008473ffffffffffffffffffffffffffffffffffffffff1673ffffffffffffffffffffffffffffffffffffffff16815260200190815260200160002060008373ffffffffffffffffffffffffffffffffffffffff1673ffffffffffffffffffffffffffffffffffffffff16815260200190815260200160002054905092915050565b6107326109bf565b600073ffffffffffffffffffffffffffffffffffffffff168173ffffffffffffffffffffffffffffffffffffffff16036107a45760006040517f1e4fbdf700000000000000000000000000000000000000000000000000000000815260040161079b91906113a0565b60405180910390fd5b6107ad81610b4a565b50565b6107b86109bf565b600654816107c4610457565b6107ce919061148a565b111561080f576040517f08c379a00000000000000000000000000000000000000000000000000000000081526004016108069061150a565b60405180910390fd5b6108198282610a46565b5050565b600033905090565b6108328383836001610c10565b505050565b600061084384846106a3565b90507fffffffffffffffffffffffffffffffffffffffffffffffffffffffffffffffff81146108c557818110156108b5578281836040517ffb8f41b20000000000000000000000000000000000000000000000000000000081526004016108ac9392919061152a565b60405180910390fd5b6108c484848484036000610c10565b5b50505050565b600073ffffffffffffffffffffffffffffffffffffffff168373ffffffffffffffffffffffffffffffffffffffff160361093d5760006040517f96c6fd1e00000000000000000000000000000000000000000000000000000000815260040161093491906113a0565b60405180910390fd5b600073ffffffffffffffffffffffffffffffffffffffff168273ffffffffffffffffffffffffffffffffffffffff16036109af5760006040517fec442f050000000000000000000000000000000000000000000000000000000081526004016109a691906113a0565b60405180910390fd5b6109ba838383610de7565b505050565b6109c761081d565b73ffffffffffffffffffffffffffffffffffffffff166109e56105be565b73ffffffffffffffffffffffffffffffffffffffff1614610a4457610a0861081d565b6040517f118cdaa7000000000000000000000000000000000000000000000000000000008152600401610a3b91906113a0565b60405180910390fd5b565b600073ffffffffffffffffffffffffffffffffffffffff168273ffffffffffffffffffffffffffffffffffffffff1603610ab85760006040517fec442f05000000000000000000000000000000000000000000000000000000008152600401610aaf91906113a0565b60405180910390fd5b610ac460008383610de7565b5050565b600073ffffffffffffffffffffffffffffffffffffffff168273ffffffffffffffffffffffffffffffffffffffff1603610b3a5760006040517f96c6fd1e000000000000000000000000000000000000000000000000000000008152600401610b3191906113a0565b60405180910390fd5b610b4682600083610de7565b5050565b6000600560009054906101000a900473ffffffffffffffffffffffffffffffffffffffff16905081600560006101000a81548173ffffffffffffffffffffffffffffffffffffffff021916908373ffffffffffffffffffffffffffffffffffffffff1602179055508173ffffffffffffffffffffffffffffffffffffffff168173ffffffffffffffffffffffffffffffffffffffff167f8be0079c531659141344cd1fd0a4f28419497f9722a3daafe3b4186f6b6457e060405160405180910390a35050565b600073ffffffffffffffffffffffffffffffffffffffff168473ffffffffffffffffffffffffffffffffffffffff1603610c825760006040517fe602df05000000000000000000000000000000000000000000000000000000008152600401610c7991906113a0565b60405180910390fd5b600073ffffffffffffffffffffffffffffffffffffffff168373ffffffffffffffffffffffffffffffffffffffff1603610cf45760006040517f94280d62000000000000000000000000000000000000000000000000000000008152600401610ceb91906113a0565b60405180910390fd5b81600160008673ffffffffffffffffffffffffffffffffffffffff1673ffffffffffffffffffffffffffffffffffffffff16815260200190815260200160002060008573ffffffffffffffffffffffffffffffffffffffff1673ffffffffffffffffffffffffffffffffffffffff168152602001908152602001600020819055508015610de1578273ffffffffffffffffffffffffffffffffffffffff168473ffffffffffffffffffffffffffffffffffffffff167f8c5be1e5ebec7d5bd14f71427d1e84f3dd0314c0f7b2291e5b200ac8c7c3b92584604051610dd89190611292565b60405180910390a35b50505050565b610df2838383610df7565b505050565b610e02838383610e9d565b600073ffffffffffffffffffffffffffffffffffffffff168373ffffffffffffffffffffffffffffffffffffffff1603610e98576000610e40610499565b90506000610e4c610457565b905081811115610e955780826040517f9e79f854000000000000000000000000000000000000000000000000000000008152600401610e8c929190611561565b60405180910390fd5b50505b505050565b600073ffffffffffffffffffffffffffffffffffffffff168373ffffffffffffffffffffffffffffffffffffffff1603610eef578060026000828254610ee3919061148a565b92505081905550610fc2565b60008060008573ffffffffffffffffffffffffffffffffffffffff1673ffffffffffffffffffffffffffffffffffffffff16815260200190815260200160002054905081811015610f7b578381836040517fe450d38c000000000000000000000000000000000000000000000000000000008152600401610f729392919061152a565b60405180910390fd5b8181036000808673ffffffffffffffffffffffffffffffffffffffff1673ffffffffffffffffffffffffffffffffffffffff16815260200190815260200160002081905550505b600073ffffffffffffffffffffffffffffffffffffffff168273ffffffffffffffffffffffffffffffffffffffff160361100b5780600260008282540392505081905550611058565b806000808473ffffffffffffffffffffffffffffffffffffffff1673ffffffffffffffffffffffffffffffffffffffff168152602001908152602001600020600082825401925050819055505b8173ffffffffffffffffffffffffffffffffffffffff168373ffffffffffffffffffffffffffffffffffffffff167fddf252ad1be2c89b69c2b068fc378daa952ba7f163c4a11628f55a4df523b3ef836040516110b59190611292565b60405180910390a3505050565b600081519050919050565b600082825260208201905092915050565b60005b838110156110fc5780820151818401526020810190506110e1565b60008484015250505050565b6000601f19601f8301169050919050565b6000611124826110c2565b61112e81856110cd565b935061113e8185602086016110de565b61114781611108565b840191505092915050565b6000602082019050818103600083015261116c8184611119565b905092915050565b600080fd5b600073ffffffffffffffffffffffffffffffffffffffff82169050919050565b60006111a482611179565b9050919050565b6111b481611199565b81146111bf57600080fd5b50565b6000813590506111d1816111ab565b92915050565b6000819050919050565b6111ea816111d7565b81146111f557600080fd5b50565b600081359050611207816111e1565b92915050565b6000806040838503121561122457611223611174565b5b6000611232858286016111c2565b9250506020611243858286016111f8565b9150509250929050565b60008115159050919050565b6112628161124d565b82525050565b600060208201905061127d6000830184611259565b92915050565b61128c816111d7565b82525050565b60006020820190506112a76000830184611283565b92915050565b6000806000606084860312156112c6576112c5611174565b5b60006112d4868287016111c2565b93505060206112e5868287016111c2565b92505060406112f6868287016111f8565b9150509250925092565b600060ff82169050919050565b61131681611300565b82525050565b6000602082019050611331600083018461130d565b92915050565b60006020828403121561134d5761134c611174565b5b600061135b848285016111f8565b91505092915050565b60006020828403121561137a57611379611174565b5b6000611388848285016111c2565b91505092915050565b61139a81611199565b82525050565b60006020820190506113b56000830184611391565b92915050565b600080604083850312156113d2576113d1611174565b5b60006113e0858286016111c2565b92505060206113f1858286016111c2565b9150509250929050565b7f4e487b7100000000000000000000000000000000000000000000000000000000600052602260045260246000fd5b6000600282049050600182168061144257607f821691505b602082108103611455576114546113fb565b5b50919050565b7f4e487b7100000000000000000000000000000000000000000000000000000000600052601160045260246000fd5b6000611495826111d7565b91506114a0836111d7565b92508282019050808211156114b8576114b761145b565b5b92915050565b7f4d617820737570706c7920657863656564656400000000000000000000000000600082015250565b60006114f46013836110cd565b91506114ff826114be565b602082019050919050565b60006020820190508181036000830152611523816114e7565b9050919050565b600060608201905061153f6000830186611391565b61154c6020830185611283565b6115596040830184611283565b949350505050565b60006040820190506115766000830185611283565b6115836020830184611283565b939250505056fea26469706673582212206a40b6e0d69abaa049c465c624906208f9d8c2e8e99b384d18165401de6ee84764736f6c63430008180033",
  "linkReferences": {},
  "deployedLinkReferences": {}
}